:100000000C9434000C9451000C9451000C94510049
:100010000C9451000C9451000C9451000C9451001C
:100020000C9451000C9451000C9451000C9451000C
:100030000C9451000C9451000C9451000C945100FC
:100040000C9451000C9451000C9451000C945100EC
:100050000C9451000C9451000C9451000C945100DC
:100060000C9451000C94510011241FBECFEFD8E026
:10007000DEBFCDBF11E0A0E0B1E0EEE1F2E002C0F2
:1000800005900D92A030B107D9F721E0A0E0B1E0D2
:1000900001C01D92A030B207E1F70E94BF000C948E
:1000A0000D010C940000ECE7F0E0908190728F70ED
:1000B000892B8083EAE7F0E08081806480838081FF
:1000C00086FDFDCF80917800909179000895EAE750
:1000D000F0E08081806880838081876080830895DC
:1000E0001092C50087E68093C40088E08093C10029
:1000F00086E08093C2000895E0ECF0E0908195FFE7
:10010000FDCF8093C6000895EF92FF920F931F9347
:10011000CF93DF93EC0168EE73E00E94E5007C0171
:1001200080E3860F0E947C0004E610E0C701B8015E
:100130000E94E50080E3860F0E947C00CE01B8019A
:100140000E94E5000AE010E0B8010E94E50080E3AB
:10015000860F0E947C00CE01B8010E94E500805D00
:100160000E947C008AE00E947C008DE00E947C005E
:10017000DF91CF911F910F91FF90EF9008950E9412
:1001800067000E94700080E090E00E9453000E948F
:10019000840081E090E00E9453000E94840082E08D
:1001A00090E00E9453000E94840083E090E00E944F
:1001B00053000E9484002FEF89E698E1215080408F
:1001C0009040E1F700C00000DECF97FB072E16F449
:1001D000009407D077FD09D00E94F90007FC05D0F4
:1001E0003EF4909581959F4F0895709561957F4F4E
:1001F0000895AA1BBB1B51E107C0AA1FBB1FA6176E
:10020000B70710F0A61BB70B881F991F5A95A9F7BF
:0E02100080959095BC01CD010895F894FFCF24
:00000001FF
