:100000000C9434000C9451000C9451000C94510049
:100010000C9451000C9451000C9451000C9451001C
:100020000C9451000C9451000C9451000C9451000C
:100030000C9451000C9451000C9451000C945100FC
:100040000C9451000C9451000C9451000C945100EC
:100050000C9451000C9451000C9451000C945100DC
:100060000C9451000C94510011241FBECFEFD8E026
:10007000DEBFCDBF11E0A0E0B1E0EAE4F9E002C0EC
:1000800005900D92A030B107D9F721E0A0E0B1E0D2
:1000900001C01D92A030B207E1F70E9459020C94F2
:1000A000A3040C940000ECE7F0E0908190728F7054
:1000B000892B8083EAE7F0E08081806480838081FF
:1000C00086FDFDCF80917800909179000895EAE750
:1000D000F0E08081806880838081876080830895DC
:1000E0001092C50087E68093C40088E08093C10029
:1000F00086E08093C2000895E0ECF0E0908195FFE7
:10010000FDCF8093C6000895EF92FF920F931F9347
:10011000CF93DF93EC0168EE73E00E947B047C01D7
:1001200080E3860F0E947C0004E610E0C701B8015E
:100130000E947B0480E3860F0E947C00CE01B80100
:100140000E947B040AE010E0B8010E947B0480E377
:10015000860F0E947C00CE01B8010E947B04805D66
:100160000E947C008AE00E947C008DE00E947C005E
:10017000DF91CF911F910F91FF90EF9008958F9293
:100180009F92AF92BF92CF92DF92EF92FF920F9326
:100190001F93CF93DF93CDB7DEB728970FB6F894B0
:1001A000DEBF0FBECDBFFE01319688E0DF011D929C
:1001B0008A95E9F77F0100E010E0A12CB12CC12C59
:1001C000D12CC8010E945300F701819391937F01C4
:1001D000C816D90614F458016C010F5F1F4F043084
:1001E000110579F7A114B104A9F50B811C81B8019F
:1001F000660F771FC60ED71EB6010D2C000C880B9C
:10020000990B0E9482034B015C01B601601B710BCC
:10021000072E000C880B990B0E94820320E030E02F
:1002200040E450E40E940E049B01AC01C501B401FE
:100230000E94D80220E030E048E452E40E940E041C
:1002400020E030E040E751E40E946C020E944A0343
:10025000CB011CC1F3E0AF16B104B9F50D811E81CD
:10026000B801660F771FC60ED71EB6010D2C000C05
:10027000880B990B0E9482034B015C01B601601B45
:10028000710B072E000C880B990B0E94820320E053
:1002900030E040E450E40E940E049B01AC01C50133
:1002A000B4010E94D80220E030E048E452E40E9409
:1002B0000E049B01AC0160E070E085E293E40E94D3
:1002C0006B020E944A03CB01E1C0AA94AB2809F05B
:1002D0006FC0E980FA800D811E810E151F05ACF5F7
:1002E000B701660F771FC60ED71EB6010D2C000C86
:1002F000880B990B0E9482034B015C01B6016E19B9
:100300007F09072E000C880B990B0E94820320E0C6
:1003100030E040E450E40E940E049B01AC01C501B2
:10032000B4010E94D80220E030E048E452E40E9488
:100330000E049B01AC0160E070E082E892E40E9450
:100340006B020E944A03CB01A1C0B801660F771F60
:10035000C60ED71EB6010D2C000C880B990B0E94FF
:1003600082034B015C01B601601B710B072E000C70
:10037000880B990B0E94820320E030E040E450E4B7
:100380000E940E049B01AC01C501B4010E94D80279
:1003900020E030E048E452E40E940E0420E030E027
:1003A00042E852E40E946C020E944A03CB016EC0F4
:1003B000EB80FC800F8118850E151F05ACF5B70189
:1003C000660F771FC60ED71EB6010D2C000C880BCA
:1003D000990B0E9482034B015C01B6016E197F09E3
:1003E000072E000C880B990B0E94820320E030E05E
:1003F00040E450E40E940E049B01AC01C501B4012D
:100400000E94D80220E030E048E452E40E940E044A
:100410009B01AC0160E070E086EE92E40E946B020A
:100420000E944A03CB0132C0B801660F771FC60E87
:10043000D71EB6010D2C000C880B990B0E9482036D
:100440004B015C01B601601B710B072E000C880B81
:10045000990B0E94820320E030E040E450E40E94C7
:100460000E049B01AC01C501B4010E94D80220E03A
:1004700030E048E452E40E940E0420E030E046EE12
:1004800052E40E946C020E944A03CB0128960FB6E8
:10049000F894DEBF0FBECDBFDF91CF911F910F91BA
:1004A000FF90EF90DF90CF90BF90AF909F908F9094
:1004B00008950E9467000E9470000E94BF000E9481
:1004C00084002FEF89E698E1215080409040E1F7C9
:1004D00000C00000F2CF5058BB27AA270E94830219
:1004E0000C94D4030E94C60338F00E94CD0320F080
:1004F00039F49F3F19F426F40C94C3030EF4E095ED
:10050000E7FB0C94BD03E92F0E94E50358F3BA17EB
:10051000620773078407950720F079F4A6F50C9419
:1005200007040EF4E0950B2EBA2FA02D0B01B90194
:1005300090010C01CA01A0011124FF27591B99F059
:10054000593F50F4503E68F11A16F040A22F232F65
:10055000342F4427585FF3CF469537952795A795B5
:10056000F0405395C9F77EF41F16BA0B620B730B5C
:10057000840BBAF09150A1F0FF0FBB1F661F771FCD
:10058000881FC2F70EC0BA0F621F731F841F48F482
:10059000879577956795B795F7959E3F08F0B0CF0B
:1005A0009395880F08F09927EE0F979587950895F2
:1005B0000E94EC020C94D4030E94CD0358F00E94D8
:1005C000C60340F029F45F3F29F00C94BD0351119C
:1005D0000C9408040C94C3030E94E50368F3992368
:1005E000B1F3552391F3951B550BBB27AA2762172F
:1005F0007307840738F09F5F5F4F220F331F441F3C
:10060000AA1FA9F335D00E2E3AF0E0E832D091506F
:100610005040E695001CCAF72BD0FE2F29D0660F5C
:10062000771F881FBB1F261737074807AB07B0E89F
:1006300009F0BB0B802DBF01FF2793585F4F3AF0A5
:100640009E3F510578F00C94BD030C9408045F3F65
:10065000E4F3983ED4F3869577956795B795F7952B
:100660009F5FC9F7880F911D9695879597F9089513
:10067000E1E0660F771F881FBB1F621773078407AF
:10068000BA0720F0621B730B840BBA0BEE1F88F7BE
:10069000E09508950E9451036894B1110C940804E8
:1006A00008950E94ED0388F09F5798F0B92F99277D
:1006B000B751B0F0E1F0660F771F881F991F1AF04D
:1006C000BA95C9F714C0B13091F00E940704B1E0A7
:1006D00008950C940704672F782F8827B85F39F0A6
:1006E000B93FCCF3869577956795B395D9F73EF4E6
:1006F00090958095709561957F4F8F4F9F4F08958E
:10070000E89409C097FB3EF49095809570956195AB
:100710007F4F8F4F9F4F9923A9F0F92F96E9BB2761
:100720009395F695879577956795B795F111F8CFDD
:10073000FAF4BB0F11F460FF1BC06F5F7F4F8F4F48
:100740009F4F16C0882311F096E911C0772321F03E
:100750009EE8872F762F05C0662371F096E8862FD6
:1007600070E060E02AF09A95660F771F881FDAF72D
:10077000880F9695879597F9089597F99F6780E870
:1007800070E060E008959FEF80EC089500240A94E3
:100790001616170618060906089500240A9412165C
:1007A0001306140605060895092E0394000C11F48F
:1007B000882352F0BB0F40F4BF2B11F460FF04C03C
:1007C0006F5F7F4F8F4F9F4F089557FD9058440F95
:1007D000551F59F05F3F71F04795880F97FB991FA0
:1007E00061F09F3F79F0879508951216130614065D
:1007F000551FF2CF4695F1DF08C0161617061806EA
:10080000991FF1CF86957105610508940895E894C4
:10081000BB2766277727CB0197F908950E9421040B
:100820000C94D4030E94C60338F00E94CD0320F03C
:10083000952311F00C94BD030C94C30311240C9464
:1008400008040E94E50370F3959FC1F3950F50E0F3
:10085000551F629FF001729FBB27F00DB11D639F72
:10086000AA27F00DB11DAA1F649F6627B00DA11D18
:10087000661F829F2227B00DA11D621F739FB00DBE
:10088000A11D621F839FA00D611D221F749F33272E
:10089000A00D611D231F849F600D211D822F762FC7
:1008A0006A2F11249F5750409AF0F1F088234AF0A4
:1008B000EE0FFF1FBB1F661F771F881F9150504010
:1008C000A9F79E3F510580F00C94BD030C940804D9
:1008D0005F3FE4F3983ED4F3869577956795B79597
:1008E000F795E7959F5FC1F7FE2B880F911D9695B1
:1008F000879597F9089597FB072E16F4009407D073
:1009000077FD09D00E948F0407FC05D03EF4909536
:1009100081959F4F0895709561957F4F0895AA1B0B
:10092000BB1B51E107C0AA1FBB1FA617B70710F0DA
:10093000A61BB70B881F991F5A95A9F7809590950C
:0A094000BC01CD010895F894FFCF2B
:00000001FF
